:100000000C945D000C949B040C9474040C94850077
:100010000C9485000C9485000C9485000C9485004C
:100020000C9485000C9485000C9485000C9485003C
:100030000C9485000C9485000C9485000C9485002C
:100040000C942A040C9485000C94F8030C94D203AD
:100050000C9485000C9485000C9485000C9485000C
:100060000C9485000C94850000000008000201003B
:100070000003040700000000000000000000000072
:10008000250028002B0000000000240027002A0083
:10009000040404040404040402020202020203032E
:1000A0000303030301020408102040800102040836
:1000B0001020010204081020C20411241FBECFEF3B
:1000C000D8E0DEBFCDBF11E0A0E0B1E0ECE3FDE0A1
:1000D00002C005900D92A433B107D9F721E0A4E343
:1000E000B1E001C01D92A83FB207E1F710E0CDE5F5
:1000F000D0E004C02197FE010E949606CC35D107BE
:10010000C9F70E940C050C949C060C94000090E02A
:10011000FC01EC55FF4F249180579F4FFC018491C7
:10012000882399F090E0880F991FFC01EA57FF4F50
:10013000A591B491FC01E458FF4F859194918FB73C
:10014000F894EC91E22BEC938FBF089580913F01DE
:100150009091400101969093400180933F01089552
:10016000AF92BF92CF92DF92EF92FF920F931F93C5
:10017000CF93DF936C017B018B01040F151FEB0103
:100180005E01AE18BF08C017D10759F06991D601BA
:10019000ED91FC910190F081E02DC6010995892B2C
:1001A00079F7C501DF91CF911F910F91FF90EF90EB
:1001B000DF90CF90BF90AF900895FC01538D448D98
:1001C000252F30E0842F90E0821B930B541710F002
:1001D000CF96089501970895FC01918D828D98170F
:1001E00061F0A28DAE0FBF2FB11D5D968C91928DE7
:1001F0009F5F9F73928F90E008958FEF9FEF089518
:10020000FC01918D828D981731F0828DE80FF11DE0
:10021000858D90E008958FEF9FEF0895FC01918DFB
:10022000228D892F90E0805C9F4F821B91098F73F4
:100230009927089583E491E00E940E0121E0892B23
:1002400009F420E0822F089580E090E0892B29F0C6
:100250000E941A0181110C9400000895FC01A48DE4
:10026000A80FB92FB11DA35ABF4F2C91848D90E0D8
:1002700001968F739927848FA689B7892C93A089BB
:10028000B1898C91837080648C93938D848D981345
:1002900006C00288F389E02D80818F7D80830895D8
:1002A000EF92FF920F931F93CF93DF93EC0181E0C6
:1002B000888F9B8D8C8D98131AC0E889F98980816D
:1002C00085FF15C09FB7F894EE89FF896083E889A0
:1002D000F98980818370806480839FBF81E090E092
:1002E000DF91CF911F910F91FF90EF900895F62E1F
:1002F0000B8D10E00F5F1F4F0F731127E02E8C8DB9
:100300008E110CC00FB607FCFACFE889F9898081FD
:1003100085FFF5CFCE010E942E01F1CFEB8DEC0FC2
:10032000FD2FF11DE35AFF4FF0829FB7F8940B8F1A
:10033000EA89FB8980818062CFCFCF93DF93EC0184
:10034000888D8823B9F0AA89BB89E889F9898C91BD
:1003500085FD03C0808186FD0DC00FB607FCF7CF79
:100360008C9185FFF2CF808185FFEDCFCE010E9479
:100370002E01E9CFDF91CF91089590E0FC01E8597B
:10038000FF4F2491FC01EC55FF4F3491FC01E057E5
:10039000FF4FE491EE23C9F0222339F0233001F11D
:1003A000A8F4213019F1223029F1F0E0EE0FFF1FFF
:1003B000E458FF4FA591B4918FB7F894EC91611177
:1003C00026C030953E233C938FBF08952730A9F077
:1003D0002830C9F0243049F7809180008F7D03C018
:1003E000809180008F7780938000DFCF84B58F77F6
:1003F00084BDDBCF84B58F7DFBCF8091B0008F773C
:100400008093B000D2CF8091B0008F7DF9CF3E2B8A
:10041000DACF3FB7F8948091390190913A01A091D9
:100420003B01B0913C0126B5A89B05C02F3F19F0B8
:100430000196A11DB11D3FBFBA2FA92F982F882764
:10044000BC01CD01620F711D811D911D42E0660F3F
:10045000771F881F991F4A95D1F708950895089529
:1004600090E080E00895CF93DF93EC0160E08E810F
:100470000E94BD0161E08E810E94BD0160E08E811D
:100480000E94BD018BE891E00197F1F7DF91CF91D8
:100490000895CF92DF92EF92FF920F931F93CF9325
:1004A000DF936C017C0187E0E80EF11CD0E0C0E036
:1004B000062F10E0B8010C2E02C0759567950A94BE
:1004C000E2F76170F70181917F010E94BD012196E1
:1004D000C430D10579F7C601DF91CF911F910F91FB
:1004E000FF90EF90DF90CF900C943302CF92DF9289
:1004F000EF92FF920F931F93CF93DF93EC01F62EB1
:10050000642F8C810E94BD018D818F3F19F060E0C6
:100510000E94BD010F2D10E08F8584FF25C06E0164
:1005200087E0C80ED11CF12CE12CB8010E2C02C0C2
:10053000759567950A94E2F76170F60181916F01F4
:100540000E94BD01FFEFEF1AFF0A88E0E816F104F0
:1005500061F7CE01DF91CF911F910F91FF90EF9046
:10056000DF90CF900C943302B80184E075956795C5
:100570008A95E1F7CE010E9449026F2DCE01DF91ED
:10058000CF911F910F91FF90EF90DF90CF900C943F
:10059000490240E0682F80EE91E00C947602CF9300
:1005A000DF93823029F49091EF0198609093EF01EE
:1005B0008093F3011092F40180E48093F50180E1CF
:1005C0008093F60180E58093F7018091E4010E9419
:1005D00087008091E5018F3F11F00E948700809194
:1005E000E6010E948700C0EED1E09E01205E31400E
:1005F0008091EF0184FD0AC084E090E021962817E5
:1006000039073CF48E810E948700EFCF88E090E0AC
:10061000F5CF8BE39DE00197F1F760E08091E40175
:100620000E94BD0160E08091E6010E94BD018091C1
:10063000E5018F3F19F060E00E94BD018091EF015C
:1006400084FD39C063E080EE91E00E944902CBE472
:10065000D6E4CE010197F1F763E080EE91E00E94CD
:1006600049022197F1F763E080EE91E00E94490290
:1006700083E592E00197F1F762E080EE91E00E945D
:1006800049028091EF0180620E94C90284E0809358
:10069000F0018CE00E94C90281E00E94C9028BE354
:1006A0009FE10197F1F782E08093F10186E0DF910D
:1006B000CF910C94C90280620E94C9028BE496E437
:1006C0000197F1F78091EF0180620E94C90283E5F2
:1006D00092E00197F1F78091EF0180620E94C902D8
:1006E000D0CF41E00E94760281E090E00895FB01C6
:1006F00001900020E9F73197AF01461B570BDC0151
:10070000ED91FC910280F381E02D09948F929F92EC
:10071000AF92BF92EF92FF920F931F93CF93DF930D
:10072000CDB7DEB7A1970FB6F894DEBF0FBECDBF31
:100730007C01FA01CB0119A2223008F42AE08E01D3
:100740000F5D1F4F822E912CB12CA12CBF01A50152
:1007500094010E947406F901CA016A300CF5605DCB
:10076000D8016E938D01232B242B252B79F790E054
:1007700080E0109721F0BD01C7010E947703A19688
:100780000FB6F894DEBF0FBECDBFDF91CF911F91A2
:100790000F91FF90EF90BF90AF909F908F90089532
:1007A000695CDECF1F920F920FB60F9211242F9328
:1007B0003F934F935F936F937F938F939F93AF93E9
:1007C000BF93EF93FF9383E491E00E942E01FF918A
:1007D000EF91BF91AF919F918F917F916F915F91B9
:1007E0004F913F912F910F900FBE0F901F90189532
:1007F0001F920F920FB60F9211242F938F939F93F6
:10080000EF93FF93E0915301F09154018081E091C7
:100810005901F0915A0182FD1BC0908180915C01C9
:100820008F5F8F7320915D01821741F0E0915C0131
:10083000F0E0ED5BFE4F958F80935C01FF91EF91AF
:100840009F918F912F910F900FBE0F901F90189531
:100850008081F4CF1F920F920FB60F9211242F9325
:100860003F938F939F93AF93BF9380913501909166
:100870003601A0913701B09138013091340123E065
:10088000230F2D3758F50196A11DB11D209334017A
:100890008093350190933601A0933701B0933801CE
:1008A0008091390190913A01A0913B01B0913C01B6
:1008B0000196A11DB11D8093390190933A01A09337
:1008C0003B01B0933C01BF91AF919F918F913F91BC
:1008D0002F910F900FBE0F901F90189526E8230FB1
:1008E0000296A11DB11DD2CF1F920F920FB60F928B
:1008F00011242F933F934F935F936F937F938F9325
:100900009F93AF93BF93EF93FF93E0910201F09118
:1009100003010995FF91EF91BF91AF919F918F9145
:100920007F916F915F914F913F912F910F900FBEEB
:100930000F901F9018951F920F920FB60F921124CF
:100940002F933F934F935F936F937F938F939F93D7
:10095000AF93BF93EF93FF93E0910001F0910101FA
:100960000995FF91EF91BF91AF919F918F917F91E9
:100970006F915F914F913F912F910F900FBE0F900C
:100980001F901895E3E4F1E01382128288EE93E061
:10099000A0E0B0E084839583A683B78388E091E0EC
:1009A0009183808385EC90E09587848784EC90E048
:1009B0009787868780EC90E0918B808B81EC90E02C
:1009C000938B828B82EC90E0958B848B86EC90E00D
:1009D000978B868B118E128E138E148EE0EEF1E0C3
:1009E000138212828AE191E0918380838DE0848377
:1009F0008FEF85838CE086838BE087838AE0808716
:100A000089E0818788E0828713861486158616869A
:100A1000178681E00C94CF02789484B5826084BDFF
:100A200084B5816084BD85B5826085BD85B58160F2
:100A300085BD80916E00816080936E001092810070
:100A4000809181008260809381008091810081602B
:100A500080938100809180008160809380008091EC
:100A6000B10084608093B1008091B0008160809378
:100A7000B00080917A00846080937A0080917A003F
:100A8000826080937A0080917A00816080937A00FE
:100A900080917A00806880937A001092C10082E091
:100AA0000E94CF02E1E08091F3018111E0E0E19545
:100AB000F0E0E052FE4F84898F5F80680E94C90297
:100AC00062E271E080EE91E00E947703E0915301D1
:100AD000F091540182E08083E0914F01F091500148
:100AE0001082E0915101F09152018FEC80831092BD
:100AF0005B01E0915701F091580186E08083E0911D
:100B00005501F0915601808180618083E09155010B
:100B1000F0915601808188608083E0915501F091C9
:100B20005601808180688083E0915501F0915601E3
:100B300080818F7D808386E00E94870085E00E940F
:100B4000870086EA90E090930101809300018091F4
:100B500069008C7F826080936900E89A1AE0C0E0A7
:100B6000D0E061E087E00E94BD0186E00E9487003E
:100B700061E086E00E94BD0160E085E00E94BD0169
:100B80000E9409024B015C0138EEC32E33E0D32EE4
:100B9000E12CF12C0E940902681979098A099B0944
:100BA000683E734081059105A8F321E0C21AD1087F
:100BB000E108F10888EE880E83E0981EA11CB11CA4
:100BC000C114D104E104F10429F7E1E08091F301BB
:100BD0008111E0E0E195F0E0E052FE4F8489895F09
:100BE00080680E94C902C0904101D09042010D2C42
:100BF000000CEE08FF082AE0B701A601F7FE0DC0C1
:100C00006DE283E491E00E94500144275527BA0128
:100C10004C195D096E097F092AE083E491E00E9486
:100C2000860360E371E083E491E00E947703C09063
:100C30004101D09042010D2C000CEE08FF082AE083
:100C4000B701A601F7FE0EC041E06DE280EE91E033
:100C50000E94760244275527BA014C195D096E0996
:100C60007F092AE080EE91E00E94860380913F0197
:100C700090914001880F991F909342018093410108
:100C80001092400110923F0183E491E00E940E0116
:100C9000892BF9F010923E0110923D0183E491E01E
:100CA0000E940E01892BA9F080913D0190913E0197
:100CB000189F7001199FF00C112483E491E00E94A9
:100CC000EC008E0D9F1DC09790933E0180933D01D7
:100CD000E5CF209709F445CF0E941A01882309F433
:100CE00040CF0E9400003DCFA1E21A2EAA1BBB1BE1
:100CF000FD010DC0AA1FBB1FEE1FFF1FA217B307E8
:100D0000E407F50720F0A21BB30BE40BF50B661FFD
:100D1000771F881F991F1A9469F7609570958095C1
:100D200090959B01AC01BD01CF010895EE0FFF1F0F
:0C0D30000590F491E02D0994F894FFCF99
:100D3C002E022E02000000005001B000DD009D01CB
:100D4C000E01EC000001000000007103B000300245
:100D5C002F0253706565643A2020202052504D00BC
:040D6C000D0A00006C
:00000001FF
